:020000040800F2
:10000000100400200D0200080B0D00084B0B000827
:10001000090D000819030008A90D000800000000E0
:100020000000000000000000000000000F0D0008AC
:100030001B030008000000000D0D0008110D000852
:1000400027020008270200082702000827020008EC
:1000500027020008270200082702000827020008DC
:1000600027020008270200082702000827020008CC
:1000700027020008270200082702000827020008BC
:1000800027020008270200082702000827020008AC
:10009000270200082702000827020008270200089C
:1000A000270200082702000827020008270200088C
:1000B000270200082702000827020008270200087C
:1000C000270200082702000827020008270200086C
:1000D000270200082702000827020008270200085C
:1000E000270200082702000827020008270200084C
:1000F000270200082702000827020008270200083C
:10010000270200082702000827020008270200082B
:10011000270200082702000827020008270200081B
:10012000270200082702000827020008270200080B
:1001300027020008270200082702000827020008FB
:1001400027020008270200082702000827020008EB
:1001500027020008270200082702000827020008DB
:1001600027020008270200082702000827020008CB
:1001700027020008270200082702000800000000EC
:1001800027020008270200082702000827020008AB
:10019000270200082702000827020008270200089B
:1001A000270200082702000827020008270200088B
:1001B000270200082702000827020008270200087B
:1001C000270200082702000800000000270200089C
:1001D000270200082702000827020008270200085B
:1001E000270200082702000827020008270200084B
:1001F0002702000827020008DFF80CD000F07AF888
:1002000000480047ED0D0008100400200648804714
:1002100006480047FEE7FEE7FEE7FEE7FEE7FEE7EB
:10022000FEE7FEE7FEE7FEE78D0D0008F901000896
:100230002DE9F05F0546002092469B46884606461B
:10024000814640241BE0284641464746224600F0AE
:1002500041F853465A46C01A914110D311461846E8
:10026000224600F028F82D1A67EB01084F46224677
:100270000120002100F01FF817EB00094E41201E5D
:10028000A4F10104DFDC484631462A464346BDE876
:10029000F09FD2B201E000F8012B491EFBD270475B
:1002A0000022F6E710B513460A4604461946FFF742
:1002B000F0FF204610BD202A04DB203A00FA02F1AC
:1002C000002070479140C2F1200320FA03F3194344
:1002D00090407047202A04DB203A21FA02F00021E6
:1002E000704721FA02F3D040C2F120029140084346
:1002F00019467047064C074D06E0E06840F00103E0
:1003000094E8070098471034AC42F6D3FFF778FF23
:10031000300E0008500E0008FEE770472DE9F84F38
:1003200000224FF001094FF0030A4FF00F0E00BFFB
:100330000B6809FA02F42340A34270D14D68012DE5
:1003400005D0022D03D0112D01D0122D11D18568B9
:100350005700CE680AFA07FC25EA0C05BE402E437A
:10036000866045680E79A543C6F3001696402E4375
:100370004660C56856008F680AFA06F4A543B74080
:100380002F43C7604D68022D01D0122D12D1D50820
:100390000F694FEA427C00EB8505AB462D6A4FEAB8
:1003A000DC6C0EFA0CF807FA0CF725EA08052F4367
:1003B000CBF820700D79076805F00305A743B54019
:1003C0003D4305604C68E40074D53D4C256845F418
:1003D00080452560246822F00307960704F48044D2
:1003E0000094384C360F2744D7F80848DFF8D8C0B7
:1003F0000EFA06F5604524EA050401D100252EE039
:10040000324DA84201D1012529E0314DA84201D148
:10041000022524E02F4DA84202D103251FE049E028
:100420002D4DA84201D1042519E02C4DA84201D13F
:10043000052514E02A4DA84201D106250FE0294DDB
:10044000A84201D107250AE0274DA84201D108257D
:1004500005E0264DA84201D1092500E00A25B54056
:10046000234E2543C7F808584D683468ED0324EA45
:10047000030400D51C431E4D34602D1D4E682C68AE
:10048000B60324EA030400D51C43194E2C60083639
:100490004D683468ED0224EA030400D51C43144D72
:1004A00034600C354E682C68B60224EA030400D58B
:1004B0001C432C60521C102AFFF43AAFBDE8F88FA1
:1004C0004438024000300140000002400004024075
:1004D00000080240000C02400010024000140240DC
:1004E00000180240001C024000200240002402408C
:1004F000003C01400069084000D0012070470AB16B
:10050000816170470904FBE701488068704700007B
:100510000000002002488168027811448160704721
:1005200000000020032010B500F060F8002000F06B
:1005300005F800F023F8002010BD000070B50D4D47
:1005400004464FF47A700C4A29781268B0FBF1F037
:10055000B2FBF0F000F0E6FA48B9102C07D2002206
:100560002146501E00F022F800206C6070BD012072
:1005700070BD0000000000200C0000200A4808B5F3
:10058000016841F080510160006800F080500090E7
:100590000548001D016841F480410160006800F4D5
:1005A0008040009008BD0000403802400E4BF0B47F
:1005B0001B680D46C3F30223C3F10706042E00D9BE
:1005C0000426191D072901D2002300E0DB1E0124A7
:1005D00004FA06F19C40491E2940641E99401440CB
:1005E0002143F0BC00F0E1BB0CED00E0064900F057
:1005F000070210B54FF6FF040868044B204040EA9C
:1006000002201843086010BD0CED00E00000FA0560
:100610002DE9F04705000F4663D0444E306800F0E6
:100620000F00B84209D2306820F00F003843306024
:10063000306800F00F00B84253D128683C4C810765
:1006400012D5400703D5206840F4E0502060287898
:10065000000703D5206840F460402060A968206846
:1006600020F0F000084320602878C0072AD03049E5
:1006700068680839012810D00968022810D0890755
:1006800000292EDA216821F0030101432160FFF7E0
:100690003BFF804641F288390DE009688903EFE7A6
:1006A0008901EDE7FFF730FFA0EB0801494502D9CA
:1006B0000320BDE8F0876868216801F00C01B1EB08
:1006C000800FEFD1306800F00F00B8420BD93068CE
:1006D00020F00F0038433060306800F00F00B8425F
:1006E00001D00120E5E72878400705D5E9682068B2
:1006F00020F4E050084320602878000706D52869D8
:10070000216821F4604141EAC000206000F018F83F
:100710002168084AC1F30311515CC84006490860CA
:1007200006480068FFF70AFF0020C2E7003C0240CD
:1007300008380240200E00080C00002004000020B1
:10074000104910B51048096811F00C0118D004299F
:1007500016D0082914D10B4C241F22682168216867
:1007600002F03F020023C1F38811A1FB0001FFF753
:100770005FFD2168C1F30141491C4900B0FBF1F064
:1007800010BD0000083802400024F4002DE9F84FA5
:1007900004004FF000076ED02078DFF87CA3AAF1A8
:1007A0000408C007A8F104054CD0DAF80010504640
:1007B000C1F38101012908D00068C0F3810002283B
:1007C0000AD1D8F80000400206D52868800339D540
:1007D00060680028DFD035E06068B0F5803F0BD05E
:1007E00010B1B0F5A02F11D0286820F48030286017
:1007F000286820F4802002E0286840F480302860D7
:10080000606890B1FFF780FE06460AE0286840F471
:1008100080202860F0E700BFFFF776FE801B642889
:1008200072D828688003F7D50CE0FFF76DFE064606
:1008300005E000BFFFF768FE801B6428F0D8286839
:100840008003F7D42078800742D5DAF800105046AC
:1008500011F00C0F08D00068C0F3810002280BD102
:10086000D8F80000400207D42868800718D5E0684F
:10087000012800D114E04AE1E0680028286817D078
:1008800040F001002860FFF73FFE064605E000BF8C
:10089000FFF73AFE801B0228C2D828688007F7D5E8
:1008A0002069296821F0F80141EAC00028600FE0C2
:1008B00020F001002860FFF727FE064605E000BF94
:1008C000FFF722FE801B02281ED828688007F7D475
:1008D0002078000729D5904861696C30002981464D
:1008E000016812D041F001010160FFF70DFE0646DC
:1008F00005E000BFFFF708FE801B022804D8D9F8E6
:1009000000008007F6D510E089E021F001010160C8
:10091000FFF7FAFD064604E0FFF7F6FD801B02280C
:100920007DD8D9F800008007F6D4207840076BD531
:10093000DFF8E49109F13809D9F80000C0000BD4C0
:10094000D9F8001041F08051C9F80010D9F8000022
:10095000012700F08050009070480168C90512D44A
:100960000168834641F480710160FFF7CDFD0646C2
:1009700005E000BFFFF7C8FD801B64284FD8DBF8F7
:100980000000C005F6D5644EA068683601280AD07C
:1009900008B1052811D0306820F0010030603068BF
:1009A00020F0040002E0306840F001003060A068F0
:1009B000A0B1FFF7A9FD83460CE0306840F00400C9
:1009C0003060F0E7FFF7A0FDA0EB0B0141F28830AB
:1009D000814268D830688007F4D50EE0FFF794FDB7
:1009E000834607E0FFF790FDA0EB0B0141F2883052
:1009F000814258D830688007F4D42FB1D9F800105C
:100A000021F08051C9F80010A069E0B3DAF80010B5
:100A1000C1F3810102294DD00228286800E042E09C
:100A200020F08070286003D0FFF76EFD04463DE0A3
:100A3000FFF76AFD064604E0FFF766FD801B02280B
:100A400031D828688001F7D4D4E90921DFF8D0C073
:100A5000D4E9070694F830304F0894F82C1030434E
:100A60000CEB074444EA8212104340EA016040EA7A
:100A70000370C8F80000286840F080702860FFF715
:100A800043FD044605E044E0FFF73EFD001B02285D
:100A900009D828688001F7D53BE000BFFFF734FD97
:100AA000001B022802D90320BDE8F88F28688001C6
:100AB000F4D42EE00128D8F8000028D0E16900F431
:100AC00080028A4223D1216A00F03F028A421ED16D
:100AD000626A47F6C0710140B1EB821F17D1A16A6B
:100AE0004FF0FF3200F4403302EB5101B3EB014F02
:100AF0000DD194F82C1000F07062B2EB016F06D1AA
:100B000094F8301000F0E040B0EB017F01D00120FC
:100B1000CAE70020C8E70000083802400070004023
:100B20000000FFFF401EB0F1807F10B501D301200F
:100B300010BD4FF0E02460610F21601700F035F91F
:100B40000020A0610721216110BDFEE72DE9F04FD3
:100B500087B014216846FFF7A3FB6348016841F0A2
:100B600010010160016801F010010591016841F078
:100B700004010160016801F004010591016841F080
:100B800080010160016801F080010591016841F078
:100B900001010160016801F001010591016841F066
:100BA00002010160016801F002010591016841F054
:100BB00008010160016801F008010591016841F038
:100BC00040010160006844F2810ADFF820B1002290
:100BD00000F04000514605905846FFF790FC44480D
:100BE00000224021FFF78BFC002469460420029478
:100BF000CDE900043F48FFF791FB3F494FF400580F
:100C0000DFF8F890CDF80080CDE901146946484638
:100C1000FFF784FB02256946322002AACDE90005D0
:100C2000032648460B2782E8D000FFF777FB862093
:100C3000694602AACDE90005314882E8D000FFF7F5
:100C40006DFB4FF00109CDF800A0CDE90194694694
:100C500058460394FFF762FB02AA6946584682E8A9
:100C6000D000CDE90085FFF759FB30020294CDE9B1
:100C7000000507206946CDE903602248FFF74EFBD7
:100C800040210091CDE90194194869460394FFF78A
:100C900045FB80206946CDE9000415480294FFF722
:100CA0003DFB4FF4E85000900A206946CDE903600F
:100CB0001348CDE90154FFF731FB28026946CDE91D
:100CC00000040F480294FFF729FB4FF420506946B7
:100CD00002AACDE90005064882E8D000FFF71EFB16
:100CE00007B0BDE8F08F0000303802400004024039
:100CF00000180240001002400000111000080240DD
:100D000000000240000C0240FEE770477047704749
:100D1000FFF700BC10B594B034216846FFF7C0FA65
:100D200014210DA8FFF7BCFA1648016841F0805164
:100D30000160006800F0805012901348016821F4AF
:100D4000404141F48041016000680221012200918C
:100D500000F440401290102000240694CDE90320B6
:100D60006846FFF713FD0F204FF48051CDE90D04C5
:100D70000DA8CDE90F4100211194FFF749FC14B0F3
:100D800010BD0000403802400070004005484FF0A0
:100D900000610368034A43F470030360803A116002
:100DA0007047000088ED00E0FEE7090700284FEAE1
:100DB000116104DB00F1E02080F80014704700F0BE
:100DC0000F0000F1E02080F8141D704702E008C811
:100DD000121F08C1002AFAD170477047002001E0B5
:100DE00001C1121F002AFBD170470000FFF79AFBD8
:100DF000FFF790FFFFF7AAFE074C084D042120469D
:100E0000FFF778FB012805D0002228460421FFF7D0
:100E100076FBF3E70122F8E70010024000040240ED
:100E2000000000000000000001020304060708099A
:100E3000500E00080000002010000000CC0D00083B
:100E4000600E00081000002000040000DC0D000807
:100E50000100000010000000000000000024F40069
:04000005080001F9F5
:00000001FF
